:0200000001fffe
:0200010001fffd
:0200020001fefd
:0200030001fefc
:0200040001fdfc
:0200050001fbfd
:0200060001f9fe
:0200070001f7ff
:0200080001f500
:0200090001f301
:02000a0001f003
:02000b0001ec06
:02000c0001e908
:02000d0001e50b
:02000e0001e10e
:02000f0001dd11
:0200100001d815
:0200110001d319
:0200120001ce1d
:0200130001c822
:0200140001c326
:0200150001bd2b
:0200160001b631
:0200170001b036
:0200180001a93c
:0200190001a242
:02001a00019a49
:02001b0001934f
:02001c00018b56
:02001d0001835d
:02001e00017b64
:02001f0001726c
:02002000016974
:0200210001607c
:02002200015784
:02002300014e8c
:02002400014495
:02002500013a9e
:020026000130a7
:020027000126b0
:02002800011cb9
:020029000111c3
:02002a000107cc
:02002b0000fcd7
:02002c0000f1e1
:02002d0000e6eb
:02002e0000daf6
:02002f0000cf00
:0200300000c40a
:0200310000b815
:0200320000ac20
:0200330000a02b
:02003400009436
:02003500008841
:02003600007c4c
:02003700007057
:02003800006462
:0200390000576e
:02003a00004b79
:02003b00003f84
:02003c00003290
:02003d0000269b
:02003e000019a7
:02003f00000db2
:00000001FF
