:020000000000fe
:020001000019e4
:020002000032ca
:02000300004bb0
:02000400006496
:02000500007c7d
:02000600009464
:0200070000ac4b
:0200080000c432
:0200090000da1b
:02000a0000f103
:02000b000107eb
:02000c00011cd5
:02000d000130c0
:02000e000144ab
:02000f00015797
:02001000016984
:02001100017b71
:02001200018b60
:02001300019a50
:0200140001a940
:0200150001b632
:0200160001c324
:0200170001ce18
:0200180001d80d
:0200190001e103
:02001a0001e9fa
:02001b0001f0f2
:02001c0001f5ec
:02001d0001f9e7
:02001e0001fde2
:02001f0001fee0
:0200200001ffde
:0200210001fede
:0200220001fdde
:0200230001f9e1
:0200240001f5e4
:0200250001f0e8
:0200260001e9ee
:0200270001e1f5
:0200280001d8fd
:0200290001ce06
:02002a0001c310
:02002b0001b61c
:02002c0001a928
:02002d00019a36
:02002e00018b44
:02002f00017b53
:02003000016964
:02003100015775
:02003200014487
:0200330001309a
:02003400011cad
:020035000107c1
:0200360000f1d7
:0200370000daed
:0200380000c402
:0200390000ac19
:02003a00009430
:02003b00007c47
:02003c0000645e
:02003d00004b76
:02003e0000328e
:02003f000019a6
:00000001FF
