:020000000000fe
:02000100000df0
:020002000019e3
:020003000026d5
:020004000032c8
:02000500003fba
:02000600004bad
:020007000057a0
:02000800006492
:02000900007085
:02000a00007c78
:02000b0000886b
:02000c0000945e
:02000d0000a051
:02000e0000ac44
:02000f0000b837
:0200100000c42a
:0200110000cf1e
:0200120000da12
:0200130000e605
:0200140000f1f9
:0200150000fced
:020016000107e0
:020017000111d5
:02001800011cc9
:020019000126be
:02001a000130b3
:02001b00013aa8
:02001c0001449d
:02001d00014e92
:02001e00015788
:02001f0001607e
:02002000016974
:0200210001726a
:02002200017b60
:02002300018357
:02002400018b4e
:02002500019345
:02002600019a3d
:0200270001a234
:0200280001a92c
:0200290001b024
:02002a0001b61d
:02002b0001bd15
:02002c0001c30e
:02002d0001c808
:02002e0001ce01
:02002f0001d3fb
:0200300001d8f5
:0200310001ddef
:0200320001e1ea
:0200330001e5e5
:0200340001e9e0
:0200350001ecdc
:0200360001f0d7
:0200370001f3d3
:0200380001f5d0
:0200390001f7cd
:02003a0001f9ca
:02003b0001fbc7
:02003c0001fdc4
:02003d0001fec2
:02003e0001fec1
:02003f0001ffbf
:00000001FF
