:0200000001fffe
:0200010001fefe
:0200020001fdfe
:0200030001f901
:0200040001f504
:0200050001f008
:0200060001e90e
:0200070001e115
:0200080001d81d
:0200090001ce26
:02000a0001c330
:02000b0001b63c
:02000c0001a948
:02000d00019a56
:02000e00018b64
:02000f00017b73
:02001000016984
:02001100015795
:020012000144a7
:020013000130ba
:02001400011ccd
:020015000107e1
:0200160000f1f7
:0200170000da0d
:0200180000c422
:0200190000ac39
:02001a00009450
:02001b00007c67
:02001c0000647e
:02001d00004b96
:02001e000032ae
:02001f000019c6
:020020000000de
:0200210003e7f3
:0200220003ce0b
:0200230003b523
:02002400039c3b
:02002500038452
:02002600036c69
:02002700035480
:02002800033c97
:020029000326ac
:02002a00030fc2
:02002b0002f9d8
:02002c0002e4ec
:02002d0002d0ff
:02002e0002bc12
:02002f0002a924
:02003000029735
:02003100028546
:02003200027555
:02003300026663
:02003400025771
:02003500024a7d
:02003600023d89
:02003700023293
:0200380002289c
:02003900021fa4
:02003a000217ab
:02003b000210b1
:02003c00020bb5
:02003d000207b8
:02003e000203bb
:02003f000202bb
:00000001FF
