:020000000000fe
:020001000026d7
:02000200004bb1
:0200030000708b
:02000400009466
:0200050000b841
:0200060000da1e
:0200070000fcfb
:02000800011cd9
:02000900013aba
:02000a0001579c
:02000b00017280
:02000c00018b66
:02000d0001a24e
:02000e0001b639
:02000f0001c826
:0200100001d815
:0200110001e507
:0200120001f0fb
:0200130001f7f3
:0200140001fdec
:0200150001ffe9
:0200160001fee9
:0200170001fbeb
:0200180001f5f0
:0200190001ecf8
:02001a0001e102
:02001b0001d30f
:02001c0001c31e
:02001d0001b030
:02001e00019a45
:02001f0001835b
:02002000016974
:02002100014e8e
:020022000130ab
:020023000111c9
:0200240000f1e9
:0200250000cf0a
:0200260000ac2c
:0200270000884f
:02002800006472
:02002900003f96
:02002a000019bb
:02002b0003f3dd
:02002c0003ce01
:02002d0003a925
:02002e00038449
:02002f0003606c
:02003000033c8f
:02003100031ab0
:0200320002f9d1
:0200330002daef
:0200340002bc0c
:0200350002a027
:02003600028541
:02003700026d58
:0200380002576d
:02003900024380
:02003a00023290
:02003b0002239e
:02003c000217a9
:02003d00020db2
:02003e000207b7
:02003f000202bb
:00000001FF
