:0200000001fffe
:0200010001fefe
:0200020001f902
:0200030001f307
:0200040001e910
:0200050001dd1b
:0200060001ce29
:0200070001bd39
:0200080001a94c
:02000900019361
:02000a00017b78
:02000b00016092
:02000c000144ad
:02000d000126ca
:02000e000107e8
:02000f0000e609
:0200100000c42a
:0200110000a04d
:02001200007c70
:02001300005794
:020014000032b8
:02001500000ddc
:0200160003e7fe
:0200170003c123
:02001800039c47
:0200190003786a
:02001a0003548d
:02001b000331af
:02001c00030fd0
:02001d0002eff0
:02001e0002d00e
:02001f0002b22b
:02002000029745
:02002100027d5e
:02002200026674
:02002300025089
:02002400023d9b
:02002500022daa
:02002600021fb7
:020027000214c1
:02002800020bc9
:020029000205ce
:02002a000202d0
:02002b000201d0
:02002c000203cd
:02002d000209c6
:02002e000210be
:02002f00021bb2
:020030000228a4
:02003100023893
:02003200024a80
:02003300025e6b
:02003400027553
:02003500028e39
:0200360002a91d
:0200370002c6ff
:0200380002e4e0
:020039000304be
:02003a0003269b
:02003b00034878
:02003c00036c53
:02003d0003902e
:02003e0003b508
:02003f0003dae2
:00000001FF
